{
  "_format": "hh-sol-artifact-1",
  "contractName": "SmartoGentOverview",
  "sourceName": "contracts/SmartoGentOverview.sol",
  "abi": [
    {
      "inputs": [
        {
          "internalType": "address",
          "name": "initialOracleAddress",
          "type": "address"
        }
      ],
      "stateMutability": "nonpayable",
      "type": "constructor"
    },
    {
      "inputs": [],
      "name": "EMPTYKNOWLEDGEBASE",
      "type": "error"
    },
    {
      "anonymous": false,
      "inputs": [
        {
          "indexed": true,
          "internalType": "address",
          "name": "newOracleAddress",
          "type": "address"
        }
      ],
      "name": "OracleAddressUpdated",
      "type": "event"
    },
    {
      "anonymous": false,
      "inputs": [
        {
          "indexed": true,
          "internalType": "address",
          "name": "owner",
          "type": "address"
        },
        {
          "indexed": true,
          "internalType": "uint256",
          "name": "requestId",
          "type": "uint256"
        }
      ],
      "name": "RequestCreated",
      "type": "event"
    },
    {
      "inputs": [
        {
          "internalType": "string",
          "name": "message",
          "type": "string"
        },
        {
          "internalType": "string",
          "name": "_knowledgeBase",
          "type": "string"
        }
      ],
      "name": "InitiateRequest",
      "outputs": [
        {
          "internalType": "uint256",
          "name": "i",
          "type": "uint256"
        }
      ],
      "stateMutability": "nonpayable",
      "type": "function"
    },
    {
      "inputs": [
        {
          "internalType": "string",
          "name": "message",
          "type": "string"
        },
        {
          "internalType": "uint256",
          "name": "runId",
          "type": "uint256"
        },
        {
          "internalType": "string",
          "name": "_knowledgeBase",
          "type": "string"
        }
      ],
      "name": "askQuestion",
      "outputs": [],
      "stateMutability": "nonpayable",
      "type": "function"
    },
    {
      "inputs": [
        {
          "internalType": "uint256",
          "name": "requestId",
          "type": "uint256"
        }
      ],
      "name": "getMessageHistoryContents",
      "outputs": [
        {
          "internalType": "string[]",
          "name": "",
          "type": "string[]"
        }
      ],
      "stateMutability": "view",
      "type": "function"
    },
    {
      "inputs": [
        {
          "internalType": "uint256",
          "name": "requestId",
          "type": "uint256"
        }
      ],
      "name": "getMessageHistoryRoles",
      "outputs": [
        {
          "internalType": "string[]",
          "name": "",
          "type": "string[]"
        }
      ],
      "stateMutability": "view",
      "type": "function"
    },
    {
      "inputs": [
        {
          "internalType": "uint256",
          "name": "runId",
          "type": "uint256"
        },
        {
          "internalType": "string[]",
          "name": "documents",
          "type": "string[]"
        },
        {
          "internalType": "string",
          "name": "",
          "type": "string"
        }
      ],
      "name": "onOracleKnowledgeBaseQueryResponse",
      "outputs": [],
      "stateMutability": "nonpayable",
      "type": "function"
    },
    {
      "inputs": [
        {
          "internalType": "uint256",
          "name": "runId",
          "type": "uint256"
        },
        {
          "internalType": "string",
          "name": "response",
          "type": "string"
        },
        {
          "internalType": "string",
          "name": "",
          "type": "string"
        }
      ],
      "name": "onOracleLlmResponse",
      "outputs": [],
      "stateMutability": "nonpayable",
      "type": "function"
    },
    {
      "inputs": [],
      "name": "oracleAddress",
      "outputs": [
        {
          "internalType": "address",
          "name": "",
          "type": "address"
        }
      ],
      "stateMutability": "view",
      "type": "function"
    },
    {
      "inputs": [
        {
          "internalType": "uint256",
          "name": "",
          "type": "uint256"
        }
      ],
      "name": "requestRuns",
      "outputs": [
        {
          "internalType": "address",
          "name": "owner",
          "type": "address"
        },
        {
          "internalType": "uint256",
          "name": "messagesCount",
          "type": "uint256"
        }
      ],
      "stateMutability": "view",
      "type": "function"
    },
    {
      "inputs": [
        {
          "internalType": "address",
          "name": "newOracleAddress",
          "type": "address"
        }
      ],
      "name": "setOracleAddress",
      "outputs": [],
      "stateMutability": "nonpayable",
      "type": "function"
    }
  ],
  "bytecode": "0x60803461007a57601f6113b838819003918201601f19168301916001600160401b0383118484101761007f5780849260209460405283398101031261007a57516001600160a01b0381169081900361007a5760018060a01b031933816002541617600255600354161760035560405161132290816100968239f35b600080fd5b634e487b7160e01b600052604160045260246000fdfe608060408181526004908136101561001657600080fd5b600092833560e01c9081631184ca2b14610c37575080632843d1351461081b5780634c69c00f14610774578063580be67b146105cc578063a1b67ed114610464578063a89ae4ba1461043b578063be3c4323146101c5578063eb17429a1461012e5763ed6e39e51461008757600080fd5b3461012a576020916020600319360112610126579291923591828152806020526001936100b9600184842001546112a2565b9382865b6100d3575b8451806100cf8882610d80565b0390f35b8184528383528685852001805482101561012057816101006100fa8a979695948894610e27565b50610f17565b61010a828a610fbc565b526101158189610fbc565b5001909192936100bd565b506100c2565b8380fd5b8280fd5b503461012a57602091602060031936011261012657929192359182815280602052600193610161600184842001546112a2565b9382865b610176578451806100cf8882610d80565b8184528383528685852001805482101561012057816101a58961019e81989796958295610e27565b5001610f17565b6101af828a610fbc565b526101ba8189610fbc565b500190919293610165565b50829034610437576003199060603683011261012a5767ffffffffffffffff8435818111610433576101fa9036908701610cdc565b906024359060443590811161042f576102169036908801610cdc565b95865115610421578186526020948686528487206001810160028201908154600019810190811161040e5761024b9082610e27565b50885161026d8161025f8d82018095610e93565b03601f198101835282610ca2565b51902088518a81019068185cdcda5cdd185b9d60ba1b82526009815261029281610c70565b519020036103cb5791546001600160a01b0392908316330361037557936103266103179897948a97948c946102df8f996102ca610fd0565b908a8d8301526102d8610ffa565b825261101a565b6102e9815461127d565b9055600354169589519a8b988997889663a252a95160e01b8852870152608060248701526084860190610d5b565b91848303016044850152610d5b565b6003606483015203925af190811561036c5750610341578280f35b813d8311610365575b6103548183610ca2565b810103126103625781808280f35b80fd5b503d61034a565b513d85823e3d90fd5b875162461bcd60e51b81528086018a9052602a60248201527f4f6e6c7920696e69746961746f72206f6620726571756573742063616e20616460448201526964206d6573736167657360b01b6064820152608490fd5b875162461bcd60e51b81528086018a9052601f60248201527f4e6f20726573706f6e736520746f2070726576696f7573206d657373616765006044820152606490fd5b634e487b7160e01b8b526011865260248bfd5b83516315ea3d1360e31b8152fd5b8580fd5b8480fd5b5080fd5b83823461043757816003193601126104375760035490516001600160a01b039091168152602090f35b509190346104375760603660031901126104375767ffffffffffffffff602435818111610126576104989036908401610cdc565b90604435908111610126576104b09036908401610cdc565b506104c660018060a01b03600354163314610de4565b81358352602083815284842090600260018301920193845460001981019081116105b9576104f49084610e27565b5087516105088161025f8682018095610e93565b519020875183810190633ab9b2b960e11b825283815261052781610c70565b51902003610578575068185cdcda5cdd185b9d60ba1b61056994959661054b610fd0565b9483860152519161055b83610c70565b60098352820152825261101a565b610573815461127d565b905580f35b60649187519162461bcd60e51b8352820152601860248201527f4e6f206d65737361676520746f20726573706f6e6420746f00000000000000006044820152fd5b634e487b7160e01b875260118252602487fd5b508290346104375760031990808236011261012a5767ffffffffffffffff8435818111610433576106009036908701610cdc565b90602435908111610433576106189036908701610cdc565b908151156107645760019586548652602096868852806002868920336bffffffffffffffffffffffff60a01b82541617815561066c610655610fd0565b878d820152610662610ffa565b815284830161101a565b0155805495818701808811610751578255600354865163a252a95160e01b8152938401889052608060248501529294899486946001600160a01b03169385938b9385936106d192916106c2906084870190610d5b565b91858303016044860152610d5b565b90606483015203925af18015610747578392918691610718575b505051927f85dcc3449f98075b485886e476487433e044f2db02a65b5bf5d29e92392b5c2c339180a38152f35b90809293503d8311610740575b61072f8183610ca2565b8101031261012a57819084866106eb565b503d610725565b82513d86823e3d90fd5b634e487b7160e01b895260118452602489fd5b82516315ea3d1360e31b81528690fd5b50903461012a57602036600319011261012a5780356001600160a01b038181169391849003610433576002541633036107e2575050600380546001600160a01b031916821790557f107a9fafffb7ac890f780879e423760c9ffea8dcee8045681f40f542aede2cb88280a280f35b906020606492519162461bcd60e51b8352820152601360248201527221b0b63632b91034b9903737ba1037bbb732b960691b6044820152fd5b509190346104375760603660031901126104375780359060249384359267ffffffffffffffff9586851161042f573660238601121561042f57848401359461086286610cc4565b9061086f85519283610ca2565b868252602096838884019160051b83010191368311610c3357848101915b838310610c095750505050604435888111610c05576108af9036908701610cdc565b506003546001600160a01b0391906108ca9083163314610de4565b838852878752848820600281015460019a9160001991828101918d01908211610bf35790816108fc8261090c94610e27565b508c8b5194859182018093610e93565b0393610920601f1995868101835282610ca2565b5190208a518d810190633ab9b2b960e11b82528d815261093f81610c70565b51902003610bb1578d9161095291610e27565b5001938c61095f86610f17565b918c8151610b5e575b908b8f928493945b610ae1575b50505050508051938411610acf5761098d8554610e59565b601f8111610a87575b508a91601f8511600114610a2557508b9c84939284928d9e9d9b9c9d95610a1a575b50501b9260031b1c19161790555b60035416948785519687948593636c4e899160e11b85528401525af190811561036c57506109f2578280f35b813d8311610a13575b610a058183610ca2565b810103126103625738808280f35b503d6109fb565b0151935038806109b8565b8493919d941691858d528b8d20928d5b818110610a7257509d848d9e9f9d9b9c9d10610a5a575b50505050811b0190556109c6565b01519060f88460031b161c1916905538808080610a4c565b8f830151855593860193918d01918d01610a35565b858d528b8d20601f860160051c8101918d8710610ac5575b601f0160051c01908e908e5b838210610aba57505050610996565b8155018e908e610aab565b9091508190610a9f565b634e487b7160e01b8c5260418a52868cfd5b82939495919251861015610b52576021859392610b4692610b028988610fbc565b5194519482610b1a8794518092858088019101610d38565b8301610b2e82518093858085019101610d38565b600560f91b9101918201520384810184520182610ca2565b930191908b8e83610970565b82919550849350610975565b90926034610baa918d519381610b7d8693518092848087019101610d38565b8201907305052932b632bb30b73a1031b7b73a32bc3a1d0560611b90820152036014810184520182610ca2565b918c610968565b895162461bcd60e51b8152808c018d9052601c818a01527f4e6f206d65737361676520746f2061646420636f6e7465787420746f000000006044820152606490fd5b634e487b7160e01b8c5260118a52868cfd5b8780fd5b82358c8111610c2f578a91610c248392893691870101610cdc565b81520192019161088d565b8b80fd5b8980fd5b9050838334610437576020366003190112610437579083913581528060205220600260018060a01b038254169101549082526020820152f35b6040810190811067ffffffffffffffff821117610c8c57604052565b634e487b7160e01b600052604160045260246000fd5b90601f8019910116810190811067ffffffffffffffff821117610c8c57604052565b67ffffffffffffffff8111610c8c5760051b60200190565b81601f82011215610d335780359067ffffffffffffffff8211610c8c5760405192610d11601f8401601f191660200185610ca2565b82845260208383010111610d3357816000926020809301838601378301015290565b600080fd5b60005b838110610d4b5750506000910152565b8181015183820152602001610d3b565b90602091610d7481518092818552858086019101610d38565b601f01601f1916010190565b6020808201906020835283518092526040830192602060408460051b8301019501936000915b848310610db65750505050505090565b9091929394958480610dd4600193603f198682030187528a51610d5b565b9801930193019194939290610da6565b15610deb57565b60405162461bcd60e51b815260206004820152601460248201527343616c6c6572206973206e6f74206f7261636c6560601b6044820152606490fd5b8054821015610e435760005260206000209060011b0190600090565b634e487b7160e01b600052603260045260246000fd5b90600182811c92168015610e89575b6020831014610e7357565b634e487b7160e01b600052602260045260246000fd5b91607f1691610e68565b600092918154610ea281610e59565b92600191808316908115610efc5750600114610ebf575b50505050565b9091929394506000526020906020600020906000915b858310610eeb5750505050019038808080610eb9565b805485840152918301918101610ed5565b60ff1916845250505081151590910201915038808080610eb9565b90604051918260008254610f2a81610e59565b90818452602094600191600181169081600014610f9a5750600114610f5b575b505050610f5992500383610ca2565b565b600090815285812095935091905b818310610f82575050610f599350820101388080610f4a565b85548884018501529485019487945091830191610f69565b92505050610f5994925060ff191682840152151560051b820101388080610f4a565b8051821015610e435760209160051b010190565b604051906040820182811067ffffffffffffffff821117610c8c5760405260606020838281520152565b6040519061100782610c70565b60048252633ab9b2b960e11b6020830152565b805468010000000000000000811015610c8c5761103e906001928382018155610e27565b61126757825180519167ffffffffffffffff92838111610c8c5784906110648354610e59565b93601f94858111611214575b506020908583116001146111ab576020949291600091836111a0575b5050600019600383901b1c191690831b1781555b019401518051928311610c8c576110b78554610e59565b828111611158575b5060209183116001146110f8579282939183926000946110ed575b50501b916000199060031b1c1916179055565b0151925038806110da565b90601f198316918560005283826000209360005b8782821061113f57505010611126575b505050811b019055565b015160001960f88460031b161c1916905538808061111c565b848601518755909501946020948501948793500161110c565b8560005260206000208380860160051c82019260208710611197575b0160051c019085905b82811061118b5750506110bf565b6000815501859061117d565b92508192611174565b01519050388061108c565b90601f1983169185600052816000209260005b8181106111fc575091859391856020989694106111e3575b505050811b0181556110a0565b015160001960f88460031b161c191690553880806111d6565b8284015185558a9690940193602093840193016111be565b9091925060008460005260206000208680860160051c8201936020871061125e575b908a9695949392910160051c01915b828110611253575050611070565b818155899501611245565b93508193611236565b634e487b7160e01b600052600060045260246000fd5b600019811461128c5760010190565b634e487b7160e01b600052601160045260246000fd5b906112ac82610cc4565b6112b96040519182610ca2565b82815280926112ca601f1991610cc4565b019060005b8281106112db57505050565b8060606020809385010152016112cf56fea264697066735822122078b322cc079e732a2d67c0c021ec37b1b925e1043967af9d0f4266fe31b1f25364736f6c63430008180033",
  "linkReferences": {},
  "deployedLinkReferences": {}
}